:020000040000fa
:080000001011040000000000d3
:020000040000fa
:102220008fad20000eff27000e0188000000000087
:102230000c00070080402200010020000f00070072
:10224000000020000000e000020032000000020058
:10225000000000009e230200000000000040da00a1
:102260000000fe00000020000000e000020032003c
:10227000000020009001880000000600a1028800f4
:10228000800078000000eb001a003700e280400078
:1022900054a0b4009101ba00e280400054a0b40000
:1022a0009102ba00e280400054a0b4000002eb00aa
:1022b000472bde00f507b200a6018800602ce10084
:1022c00008003a000049eb000201e8000200390072
:1022d0003420ec0002f0a0008301e900f9ff3e0089
:1022e000040037006128e100010032000082eb00a9
:1022f000040007001101ba000200e000e3ff3a0009
:102300000000060004d0a300e20f49001c003900c1
:10231000810278003549ba000201e8000200390064
:102320003420ec0002f0a0008301e9000f0032002d
:102330002549ba000201e800020039003420ec000f
:1023400002f0a0008301e900080032000400e00070
:102350000600320015c9ba000201e8000200390087
:102360003420ec0002f0a0008301e9008180e80045
:1023700054a0b4000300e000e2ff3a0000000600b1
:102380009102ba00055978008301e900f7ff320095
:10239000c82ade00055978008301e900f3ff320006
:1023a0000400e000f1ff320011d9ba00eeff37005f
:1023b0005e1a0400000000001a1a04000000000069
:1023c0007e1a0400000000000c1f04000000000042
:1023d000de1e040000000000761f04000000000064
:1023e000441f04000000000003f0a200889fbe000c
:1023f0008a9fbe008c1f7800f7000700fe003300a4
:102400006450e1004f0032006420e10052003200cd
:1024100003826c0007003b000905d0000306d000d2
:10242000820f54000c065d000200390002003200e9
:1024300089017800030678008582550004003d007c
:102440000003fd008103fd008502ea008b85420048
:10245000840f720002003b0060001000e080180052
:102460006011b8000005eb007a28e1000a0039008d
:1024700006007800c75ddd00f707b20087807500b1
:102480002d003700828171000a017800610560002b
:102490008180d1000080d3008502e900f9ff3b0074
:1024a000060440008784480002003b0060041400da
:1024b000e0841c000988a300070032008a817100b3
:1024c00082817100610164008904d1000884d30015
:1024d0008b05e800170037000978a30013003a00c5
:1024e0000b00e000130034008b05e90008044400f1
:1024f00089844c000a4474000978a3000d003a0056
:102500000b00e000070034008b05e90008044400dc
:1025100089844c0001003a000b0020000978a300d8
:10252000f7ff32000001eb000200370082817100ea
:102530000a0178006d0007000cf0a70001f0a00070
:10254000b60037006420e10002003a00838f6c007f
:10255000b60033000801be000200be00af00370025
:10256000889fbe008a9fbe008c1f78009a000700db
:10257000a100330003866c006450e1002e0032009d
:102580006420e100330032006150e1002f0032008e
:102590006120e1003100320085855500eb07b00075
:1025a000090020000804200005003700080444004a
:1025b00089844c000a0031000603430087834b00e6
:1025c0000001530081815b00f8ff33000203be006d
:1025d0000800a0000804440089844c00f6ff39007c
:1025e000c639dd00830173000100320013002000b2
:1025f0008904d1000884d3000998a30005003200a3
:102600000800a7000300a0008904d1000884d300bb
:102610008b05e8008904d1000884d3000001eb0099
:102620000281d2003100070001f0a1000cf0a700e8
:1026300001f0a000790037006420e1007b00320047
:102640000801be000200be00f7ff37006120e10074
:10265000760032006000b800f3ff37000000200071
:1026600001f82700f0ff370014002000b600370003
:10267000f4ff2f00b40037000001be004100070046
:102680000470a70003f0a10003f8a30013003a00b0
:102690006509b10010003200090035006928e10029
:1026a0000200350001002800000005000000400085
:1026b000818048008502e900fcff3a000000060026
:1026c000f88f4200050035008100d1000080d30062
:1026d0008502e800fcff3a00000006008000eb00e5
:1026e000000005006011b800b20037008100200032
:1026f000618055000b003d000b00200061fe2f00a3
:102700000100e1001d00340082817100610164005c
:102710008904d1000884d3000000e800faff3a00e1
:10272000710020006100640003007000020060007e
:102730000900320061044400e0844c000988a500cf
:10274000050032008b05e8006808e10002003a004d
:102750008904d1000884d300f20f20000258e10060
:1027600005003d00c75ddd00f907b20089807500f6
:1027700008007800000006000bf827008b007800a6
:1027800000000500c70ade00f107b200f50fb20035
:1027900008003200e1cf4200020032000170a000c8
:1027a00024000500810f70000100320004080500bc
:1027b00044000500810f700002003a00140005007b
:1027c0008502e9000000400081c04800fcff3b009a
:1027d0000170a000240005000004be00e9ff07000e
:1027e0000003be000405be000200be00e5ff0700b6
:1027f000844f7500000006000200be006450e10036
:10280000050036006420e100020036000968a300dc
:1028100001003a000800be000160a0004f067800e9
:102820004f05be004f04be0000000600f0ff2f0061
:10283000f1ff2700f9ff3700889fbe008a9fbe0086
:102840008c1f7800e4ff0700ebff330003866c0069
:102850006450e100240032006420e10027003200cf
:102860006150e100220032006120e10021003200cd
:102870008b854200eb07b1000134b800003ab80084
:102880000804420089844a00013ab8000030b800c8
:102890008880400009014a00040033000000400025
:1028a00081804800020149008b05e900c909dd006b
:1028b000830170000100320013002000c814de0004
:1028c0004814dd004709de001200b200c808de002f
:1028d0000884700085ff070001f0a1000cf0a7003c
:1028e00001f0a000cdff37006120e100cfff3200f2
:1028f0000801be000200be00f7ff37006150e10092
:10290000fcff3a00c9ff37006022b8000602200031
:102910000000d0008180d2000482d2008582d200e3
:102920000000a0000202520083825a00030031001e
:102930000202420083824a000000a1000603e9006f
:10294000f3ff3a0000000600889fbe008a9fbe0089
:10295000841f7800a0ff07004f00780011003300ab
:10296000f0ff2f00838f6c0006003b00040565001c
:102970000a00a7000800370009f0a6001000200098
:1029800008003700820f5400838f5c000300390079
:102990001000200001003e000000200009f0a70008
:1029a0000000ea004f05be004f04be000000e0003a
:1029b00000000600889fbe008a9fbe000082700053
:1029c0000402710004827100260032000004be007f
:1029d0000200be006011b8006b09200095022000c3
:1029e0000182cf000a0039000541b1000082cf000a
:1029f000070039000541b1000982cf000400390009
:102a00000541b1000882cf00010039000541b10045
:102a100005425200120032000a003b008281710020
:102a2000610164008100d1000080d3008984d3005b
:102a30000884d3008b05e8000442e800f7ff3a0061
:102a4000070037000804440089844c000000480057
:102a5000818048008b05e9000442e900f9ff3a0053
:102a600022ff07004f05be004f04be000000060015
:020000040000fa
:020000040002f8
:04aff400031c00003a
:020000040000fa
:020000040002f8
:04aff8000f890000bd
:020000040000fa
:020000040002f8
:04affc007f3e000094
:020000040000fa
:1020000010110400000000002e2404000000000055
:102010002e240400000000002e2404000000000014
:102020002e240400000000002e2404000000000004
:102030002e240400000000002e24040000000000f4
:102040002e240400000000008a1504000000000097
:102050002e240400000000002e24040000000000d4
:10206000b015040000000000d615040000000000b8
:102070002e240400000000002e24040000000000b4
:102080002e240400000000002e24040000000000a4
:102090002e240400000000002e2404000000000094
:1020a0002e240400000000002e2404000000000084
:1020b0002e240400000000002e2404000000000074
:1020c0002e240400000000002e2404000000000064
:1020d0002e240400000000002e2404000000000054
:1020e000fc1504000000000022160400000000009f
:1020f0002e240400000000002e2404000000000034
:102100002e240400000000002e2404000000000023
:102110002e240400000000002e2404000000000013
:102120002e240400000000002e2404000000000003
:102130002e240400000000002e24040000000000f3
:102140002e240400000000002e24040000000000e3
:102150002e240400000000002e24040000000000d3
:102160002e240400000000002e24040000000000c3
:102170002e240400000000002e24040000000000b3
:102180002e240400000000002e24040000000000a3
:102190002e240400000000002e2404000000000093
:1021a0002e240400000000002e2404000000000083
:1021b0002e240400000000002e2404000000000073
:1021c0002e240400000000002e2404000000000063
:1021d0002e240400000000002e2404000000000053
:1021e0002e240400000000002e2404000000000043
:1021f0002e240400000000002e2404000000000033
:102200002e240400000000002e2404000000000022
:102210002e240400000000002e2404000000000012
:020000040000fa
:1000080004100000081000000c1000001010000080
:10001800141000000c1100000c1100000c1100005d
:10002800181000001c100000201000002410000010
:100038000c110000281000002c10000030100000e7
:1000480034100000381000003c1000004010000080
:1000580044100000481000000c1100000c110000b2
:100068004c10000050100000541000005810000000
:100078005c1000000c11000060100000641000000b
:100088000c110000681000006c10000070100000d7
:1000980074100000781000007c1000008010000030
:1000a80084100000881000000c1100000c110000e2
:1000b8000c1100008c10000090100000941000003b
:1000c800981000009c100000a0100000a410000070
:1000d800a8100000ac1000000c1100000c1100006a
:1000e8000c110000b0100000b41000000c1100004a
:1000f8000c110000b8100000bc1000000c1100002a
:100108000c1100000c1100000c1100000c11000073
:100118000c1100000c110000c01000000c110000b0
:100128000c110000c4100000c8100000cc10000022
:100138000c1100000c1100000c1100000c11000043
:10014800d01000000c1100000c1100000c11000070
:100158000c110000d41000000c1100000c1100005c
:100168000c110000d8100000dc100000e0100000a6
:10017800e4100000e8100000ec100000f01000008f
:10018800f4100000f8100000fc100000001100003e
:1001980004110000081100000c1100000c110000ef
:1001a8000c1100000c1100000c1100000c110000d3
:1001b8000c1100000c1100000c1100000c110000c3
:1001c8000c1100000c1100000c1100000c110000b3
:1001d8000c1100000c1100000c1100000c110000a3
:1001e8000c1100000c1100000c1100000c11000093
:0801f8000c1100000c110000c5
:020000040000fa
:102a70000200fa00000f78001e007800ec01070049
:102a80001e00780010089000e00f50000500320092
:102a90001e007800900890001e00780001000100e0
:102aa0001a0037001e00780020089000e00f500048
:102ab000140032001e00780000089000e00f500063
:102ac0000a0032001e007800a00890001e00780066
:102ad000010001001e007800000890008000e9005d
:102ae0001e00780001089800080037001e007800da
:102af000f70107001e0078008000eb002108980015
:102b0000020037001e007800f10107000080fa0083
:102b1000000006003600f800809fbe00829fbe00c5
:102b2000849fbe00869fbe003200f8000000200097
:102b3000900188000000fa00a0a52000ccff07004b
:102b40000080fa003200f9004f03be004f02be00c1
:102b50004f01be004f00be003600f90000400600e5
:102b60003600f800809fbe00829fbe00849fbe009a
:102b7000869fbe003200f80000002000900188000f
:102b80000000fa0000a72000b9ff07000080fa004b
:102b90003200f9004f03be004f02be004f01be00dd
:102ba0004f00be003600f900004006003600f80075
:102bb000809fbe00829fbe00849fbe00869fbe0095
:102bc0003200f80000002000900188000000fa00a8
:102bd00060a82000a6ff07000080fa003200f9007c
:102be0004f03be004f02be004f01be004f00be00ab
:102bf0003600f900004006003600f800809fbe0055
:102c0000829fbe00849fbe00869fbe003200f800f7
:102c100000002000900188000000fa00c0a92000f8
:102c200093ff07000080fa003200f9004f03be0056
:102c30004f02be004f01be004f00be003600f9003b
:102c4000004006003600f800809fbe00829fbe0054
:102c5000849fbe00869fbe003200f8000000200066
:102c6000900188000000fa0020ab200080ff0700e0
:102c70000080fa003200f9004f03be004f02be0090
:102c80004f01be004f00be003600f90000400600b4
:102c90000000fa00b0002000801f780047002000ec
:102ca00036c0b3004509200044082000031020006e
:102cb0002210200041102000a0a5200033000700b2
:102cc0008f87e900c0002000801f78008003eb00a0
:102cd00076c0b3004509200044082000631020009e
:102ce000c21020000111200000a7200027000700cb
:102cf0008f87e900d0002000801f78001700200097
:102d000086c0b3004509200044082000a31020001d
:102d1000e21020002111200060a820001b00070005
:102d20008f87e900e0002000801f78002700200046
:102d3000b6c0b300650920006408200043112000dc
:102d4000a2112000e1112000c0a920000f000700ff
:102d50008f87e900f0002000801f780037002000f6
:102d6000c6c0b3006509200064082000831120005c
:102d7000c21120000112200020ab20000300070038
:102d80008f87e9000080fa00000006001000fa00ba
:102d9000000f780011079800220798003307980069
:102da0004407980055079800464f98007707980009
:102db0001e0078009e009000010878001e00780038
:102dc000ae009000110098001e007800be00900038
:102dd000210098001e007800ce009000310098007d
:102de0001e007800de009000410098001e00780070
:102df000ce489000214898001e007800fe00900008
:102e0000610098001e007800ceb89700710098000d
:102e10001e0078008000eb00010898001e0078007a
:102e20008000eb00110898001e0078008000eb0085
:102e3000210898000080fa00000006000600fa0051
:102e4000881f7800000f7800120798002307980069
:102e500018c0b300d27b230063f823001e0090004b
:102e6000ae00900002fe0700e00f500001003c00a1
:102e70000044eb00e04f540069003a0018c0b30072
:102e8000d27b230063e823001e009000ae00900078
:102e9000f7fd0700e00f500001003c000044eb008c
:102ea000e04f5400120032001e007800c4000700fa
:102eb0001e0078001000780001032000010878004f
:102ec0001e00780010049000024022004377240086
:102ed0001e009000ae00900057fe0700e6fd0700c0
:102ee000000078000000e900000c78004d00370079
:102ef00018c0b300d27b230063d023001e009000d3
:102f0000ae009000dafd0700e00f500001003c0029
:102f10000044eb00e04f5400120032001e00780025
:102f2000a70007001e0078001000780001022000b2
:102f3000010878001e007800100490000240220072
:102f4000438724001e009000ae0090003afe070068
:102f5000c9fd0700000078000000e900000c7800bf
:102f60003000370018c0b300d27b230063b82300c1
:102f70001e009000ae009000bdfd0700e00f500065
:102f800001003c000044eb00e04f5400120032000e
:102f90001e0078008a0007001e00780010007800ec
:102fa00001012000010878001e0078001004900044
:102fb00002402200439f24001e009000ae009000bb
:102fc0001dfe0700acfd0700000078000000e900ce
:102fd000000c7800130037001e007800780007000e
:102fe0001e007800100078008000eb0001087800d7
:102ff0001e007800100490000240220043b7240015
:103000001e009000ae0090000bfe07009afd070026
:10301000000078000000e900000c78000100370093
:10302000000000004f0478000080fa000000060055
:103030000400fa00889fbe00100798001e00900050
:1030400010007800900078000003200000806000ed
:103050004400de00000f78001e007800c200dd0092
:1030600080ac2000008040001004be001e009000d4
:1030700010009000100078000100200099fd07006a
:103080000200200003f82300d8fc07000001be0066
:103090000800be00e8fd07004f04be000080fa00f3
:1030a000000006000600fa00000f780012079800e2
:1030b000230798001e019000ae0190000000200040
:1030c00001f8230026fd07000001be001e00780065
:1030d0005aff07000080fa00000006000200fa0014
:1030e000000f78001e007800d1ff07000001be002d
:1030f0000000200001f8230019fd07000080fa00fd
:10310000000006000400fa00889fbe001007980027
:103110001e0090001000780090007800000320004e
:10312000008060004400de00000f78001e00780080
:10313000c200dd0080ac2000008040001004be0012
:103140001e00900010009000100078000100200088
:1031500064fd07000200200003f82300a3fc070021
:103160000001be000800be00b3fd07004f04be0012
:103170000080fa00000006000200fa00000f78004c
:103180001e0078002a0007001e0078002000900032
:103190008000eb00010878001e0078001000780025
:1031a0009e0078009100780011017800010028004d
:1031b00081007100010878000080fa00000006001c
:1031c0000200fa00000f78001e007800100078005e
:1031d0009e0078009100780011017800f1ff27002f
:1031e00081006100010878000080fa0000000600fc
:1031f0000200fa00000f78001e00780030009000f6
:10320000900078001e007800204890000080fb00ad
:10321000120020000010dd00808060000100ea0044
:10322000010070004f00de000080fa000000060080
:103230000200fa00000f78001e007800b000900035
:103240001e00780030009000100178001e00780009
:10325000204890000080fb00130020000018dd00d3
:103260000080ea0000006100800878000080fa0019
:10327000000006000200fa00000f78001e0078002f
:1032800020009000100078000080fa000000060086
:103290000200fa00000f78001e007800c0009000c5
:1032a0001e00780040009000100178001e00780099
:1032b000204890000080fb00130020000018dd0073
:1032c00000007100800878000080fa00000006000d
:1032d0000200fa00000f78001e007800c000900085
:1032e0001e00780040009000100178001e00780059
:1032f000204890000080fb00130020000018dd0033
:103300000080ea0000006100800878000080fa0078
:10331000000006000800fa00000f7800120798006d
:1033200023079800310798001e007800e8ff070087
:103330001e019000ae0190001e007800bffe070045
:103340001e0078008000eb00010898001e00780045
:10335000be009000110898001e0078008000eb006d
:10336000210898001e007800c9ff07001e007800a1
:1033700081ff07000080fa00000006000a00fa0042
:10338000000f780012079800230798003107980073
:10339000440798001e007800cdff07001e01900032
:1033a000ae0190001e007800a4fe07001e00780009
:1033b000be009000010898001e0078008000eb001d
:1033c000110898001e007800ce0090002108980097
:1033d0001e007800aeff07001e00780066ff0700a1
:1033e0000080fa00000006000200fa00000f7800da
:1033f0001e007800b6ff07001e0078008cff070053
:103400001e0078006eff07001e0078008000eb00b1
:10341000010898001e0078008000eb001108980059
:103420001e0078008000eb00210898000080fa0060
:10343000000006000400fa00000f78001107980051
:103440001e009000e00f50000d0032001e007800ba
:10345000900078001e0078001000780010017800bd
:103460001e007800604090000080fb0013002000e8
:103470000018dd0000007100800878000d003700a2
:103480001e007800900078001e0078001000780080
:10349000100178001e007800604090000080fb0062
:1034a000130020000018dd000080ea000000610029
:1034b000800878000080fa00000006000200fa0090
:1034c000000f78001e00780010007800900078004f
:1034d0001e007800604090000080fb001200200079
:1034e0000010dd00808060000100ea000100700033
:1034f0004f00de000080fa00000006000200fa0023
:10350000000f78001e0078004000900040198800ed
:103510002023a80000000000001980006100600066
:10352000e00f5000fcff3200001880000080fa001d
:10353000000006000200fa00406d2000801f7800a5
:10354000470120000043eb008082eb0054c0b30031
:103550008001eb00822d2000a12d200000802000a2
:103560000a0107008f87e900806d2000801f780026
:103570009701200086c0b3008082eb0044c0b300f6
:103580008001eb00822d2000a12d20006081200011
:10359000fe0007008f87e900a06c2000801f7800e4
:1035a000a70020000043eb008082eb0044c0b30082
:1035b0008001eb00822e2000a12e2000c08220007e
:1035c000f20007008f87e900006d2000801f78005f
:1035d0001701200086c0b3008082eb0054c0b30006
:1035e0008001eb00822e2000a12e200020842000ec
:1035f000e60007008f87e900c06d2000801f78007b
:10360000d701200086c0b300f5002000f4c0b3004d
:10361000234e2000822c2000a12c20008085200039
:10362000da0007008f87e900006d2000801f780016
:10363000070120000043eb008082eb0034c0b300a0
:103640008001eb00822e2000a12e2000e0862000c9
:10365000ce0007008f87e900206c2000801f7800d3
:10366000270020000043eb008082eb0084c0b30001
:103670008001eb00822d2000a12d20004088200039
:10368000c20007008f87e900c06c2000801f78000f
:10369000c70020000043eb008082eb00b4c0b30001
:1036a0008001eb00822d2000a12d2000a0892000a8
:1036b000b60007008f87e900406c2000801f78006b
:1036c000470020000043eb008082eb0094c0b30071
:1036d0008001eb00822d2000a12d2000008b200016
:1036e000aa0007008f87e900206c2000801f780067
:1036f0003700200086c0b3008082eb00a4c0b30076
:103700008001eb00822d2000a12d2000608c200084
:103710009e0007008f87e900a06c2000801f7800c2
:10372000b700200086c0b3008082eb000042eb00af
:103730008001eb00822d2000a12d2000c08d2000f3
:10374000920007008f87e900806d2000801f7800bd
:10375000870120000043eb008082eb0014c0b3001f
:103760008001eb00822d2000a12d2000208f200061
:10377000860007008f87e900606d2000801f7800b9
:103780007701200086c0b3008082eb0024c0b30024
:103790008001eb00822d2000a12d200080902000d0
:1037a0007a0007008f87e900606d2000801f780095
:1037b000670120000043eb008082eb0034c0b300bf
:1037c0008001eb00822d2000a12d2000e09120003f
:1037d0006e0007008f87e900006c2000801f7800d2
:1037e0008003eb000043eb008002eb000042eb00a3
:1037f000234e2000822c2000a12c2000409320008a
:10380000620007008f87e900006c2000801f7800ad
:103810001700200086c0b3001500200014c0b300bc
:10382000234e2000822c2000a12c2000a0942000f8
:10383000560007008f87e900c06c2000801f7800c9
:10384000d700200086c0b3002500200024c0b300ac
:10385000234e2000822c2000a12c20000096200066
:103860004a0007008f87e9000000eb00801f780006
:103870008083eb000043eb003500200034c0b30030
:10388000234e2000822c2000a12c200060972000d5
:103890003e0007008f87e900c06d2000801f780080
:1038a000c70120000043eb004500200044c0b300e6
:1038b000234e2000822c2000a12c2000c098200044
:1038c000320007008f87e900206d2000801f7800fc
:1038d000270120000043eb005500200054c0b30036
:1038e000234e2000822c2000a12c2000209a2000b2
:1038f000260007008f87e9000000eb00000f78002a
:10390000070037001e0078007600b90080007800bc
:103910000080200000804000480007001e0fe800e3
:103920001e007800ed0f5000f6ff36000000eb009f
:10393000000f7800070037001e0078007600b900fd
:10394000800078004093200000804000970007002e
:103950001e0fe8001e007800e50f5000f6ff36004d
:10396000002e2000001988000000eb0010198800cc
:1039700000c42000201988000000eb0040198800d6
:1039800021e3a8000080fa00000006001000fa0001
:10399000000f78001107980022079800330798005d
:1039a000044f980055079800464f980077079800f5
:1039b0001e0078009e009000010878001e0078002c
:1039c000ae009000110098001e007800be0090002c
:1039d000210098001e0078008e48900061409800f9
:1039e0001e007800de009000410098001e00780064
:1039f000ce48900021489800fe0090001e007800fc
:103a0000610098001e007800ceb897007100980001
:103a10001e0078008000eb00010898001e0078006e
:103a20008000eb00110898001e0078008000eb0079
:103a3000210898000080fa00000006000200fa0049
:103a4000000f78001e00780020009000e00f50006a
:103a50000d0032001e007800a00090001e007800cb
:103a600020009000100178001e0078006040900057
:103a70000080fb00130020000018dd000080ea0039
:103a800000006100800878001e007800900090001f
:103a90001e00780010009000100178001e007800d1
:103aa000604090000080fb00130020000018dd0043
:103ab00000007100800878001e0078008000eb0094
:103ac000110898001e007800e1a521002108980047
:103ad0000080fa00000006000200fa00000f7800e3
:103ae0001e00780020009000e00f50000d00320012
:103af0001e007800a00090001e00780020009000ba
:103b0000100178001e007800604090000080fb00eb
:103b1000130020000018dd000080ea0000006100b2
:103b2000800878001e007800900078001e00780061
:103b300010007800100178001e00780060409000ae
:103b40000080fb00130020000018dd000080ea0068
:103b500000006100800878001e007800900090004e
:103b60001e00780010009000100178001e00780000
:103b7000604090000080fb00130020000018dd0072
:103b80000080ea0000006100800878001e007800d4
:103b9000a1a12100110898001e007800e1a52100d4
:103ba000210898000080fa00000006000200fa00d8
:103bb000000f78001e00780020009000e00f5000f9
:103bc0001f0032001e007800900090001e00780058
:103bd00010009000100178001e00780060409000f6
:103be0000080fb00130020000018dd0000007100c1
:103bf000800878001e007800a00090001e00780069
:103c000020009000100178001e00780060409000b5
:103c10000080fb00130020000018dd000000710090
:103c2000800878001e0078008000eb0011089800e2
:103c30001e007800e1a7210021089800010037004c
:103c4000000000000080fa00000006000200fa00f8
:103c5000000f78001e00780090089000a0a12100bd
:103c6000808f50000c003a001e0078009000780011
:103c70001e00780010007800100178001e00780007
:103c8000604090000080fb00130020000018dd0061
:103c900000007100800878000080fa000000060033
:103ca0000200fa00000f78001e00780090089000d3
:103cb000a0a12100808f50000d003a001e00780066
:103cc000900078001e007800100078001001780045
:103cd0001e007800604090000080fb001300200070
:103ce0000018dd000080ea00000061008008780014
:103cf0000080fa00000006000200fa00000f7800c1
:103d00001e00780090089000a0a12100808f500034
:103d10000c003a001e007800900078001e00780029
:103d200010007800100178001e00780060409000bc
:103d30000080fb00130020000018dd000000690077
:103d4000800878000080fa00000006000400fa00f5
:103d5000000f7800110798001e00780010089000ee
:103d6000e00f5000050032001e007800100990009e
:103d70009e0090001e007800020001000080fa0002
:103d8000000006000200fa00000f78001e00780014
:103d900020089000e00f5000050032001e0078005f
:103da000a00890001e00780001000100010037000b
:103db0000080eb000080fa00000006000800fa0016
:103dc000300798003e00900000089000000f780037
:103dd0000000eb00100798001e00780030009000f3
:103de00010007800200798001e029000ae0290009c
:103df0001e007800200090001000780001002000d4
:103e00000001be000400be00bffa070000007800f9
:103e10000080fa00000006000a00fa00300798004f
:103e2000410798003e00900000089000000f7800c5
:103e30004e0090006101b8001e0078002000900044
:103e40001000780001002000009ab90004027800f8
:103e5000028bb90086027800050242000010b8000b
:103e600001024200840078001007980021079800a2
:103e70001e00780030009000ae009000010878002d
:103e80000080fa00000006000800fa0030079800e1
:103e90003e00900000089000000f78000000eb004a
:103ea000100798001e007800200090009000780015
:103eb0001e007800600090000080500020079800ed
:103ec0001e029000ae0290001e007800700090006c
:103ed000010020000001be000400be008afa0700b5
:103ee000000078000080fa00000006000a00fa00d6
:103ef00030079800410798003e00900000089000ad
:103f0000000f78004e0090006101b8001e0078009c
:103f10007000900001002000009ab90004027800af
:103f2000028bb90086027800050242000010b8003a
:103f300001024200840078001007980021079800d1
:103f40001e007800200090009e0078006101900023
:103f5000ae00900081004100010878000080fa0066
:103f6000000006000000fa0026012000851920004c
:103f70006419200043192000221920000119200093
:103f8000809b20004200070036012000251a2000f7
:103f9000041a2000e3192000c2192000a1192000f2
:103fa000a09c20003a00070046012000c51a20000e
:103fb000a41a2000831a2000621a2000411a20004f
:103fc000c09d20003200070056012000651b200024
:103fd000441b2000231b2000021b2000e11a2000ac
:103fe000e09e20002a00070066012000051c20003a
:103ff000e41b2000c31b2000a21b2000811b20000b
:1040000000a020002200070076012000a51c20004f
:10401000841c2000631c2000421c2000211c200066
:1040200020a120001a00070086012000451d200065
:10403000241d2000031d2000e21c2000c11c2000c4
:1040400040a220001200070096012000e51d20007c
:10405000c41d2000a31d2000821d2000611d200022
:1040600060a320000a00070036022000851e200001
:10407000641e2000431e2000221e2000011e20007e
:1040800080a42000020007000080fa000000060063
:104090000e00fa00000f7800110798002207980020
:1040a0003307980044079800550798006607980062
:1040b0001e0078009e009000010878001e00780025
:1040c000ae009000110098001e007800be00900025
:1040d000210098001e007800ce009000310098006a
:1040e0001e007800de009000410098001e0078005d
:1040f00001e82300610098001e00780001e8230019
:10410000710098001e007800ee00900051009800a9
:104110001e0078008000eb00010898000080fa0083
:10412000000006000200fa00000f78001e00780070
:10413000100078008000eb00010878001e00780075
:10414000100090008000eb00010878001e0078004d
:1041500000089000e00f50002f003200113a80005c
:10416000f00b200000816000600420007105200039
:1041700023742000804978008149780082497800c2
:104180001e00780000089000f00090001e007800eb
:104190000008900070009000100178001e00780068
:1041a00000089000204890000080fb00f3032000ee
:1041b0000018dd000080ea0000006100800878003f
:1041c000113a80000004200000817000600420008b
:1041d000710520002374200080497800814978000f
:1041e000824978001e007800000890008000eb00f3
:1041f000010898001e0078000008900036fe0700b5
:104200001e00780000089000a5fe07001e00780040
:104210008000eb00010898000080fa000000060012
:104220001000fa00881f78002007980031079800d6
:104230004207980054079800650798007307980094
:104240003e00900060009000e10f40009c003200b2
:104250003e00900000089000e00f500033003a004c
:104260002e009000be009000010898003e009000d3
:10427000ae00900001089800113a8000f00b200079
:10428000008160006004200071052000237420007c
:104290008049780081497800824978003e0090008a
:1042a000f00090003e009000700090001001780037
:1042b0003e009000204890000080fb00f3032000a7
:1042c0000018dd000080ea0000006100800878002e
:1042d0003e009000f00090003e00900070009000c2
:1042e000100178002e009000d00190003e00900058
:1042f000204890000080fb000018dd0000007100e5
:1043000080087800113a80000004200000817000cd
:10431000600420007105200023742000804978008b
:104320008149780082497800050037003e009000fe
:10433000800890002e009000808f500062003a00ac
:104340004e009000e00f50001c0032002e00900044
:1043500010007800ce009000e1009000ca08dd0057
:104360006100b300010878002e009000100090005a
:10437000f1012000010878005e019000ee0190003c
:104380004e00900047fb07002e0090002000900098
:10439000ce00900091009000910078000108780014
:1043a0002e009000400090008000eb000108780093
:1043b0004e00900070fb0700250037002e00900093
:1043c0001000780061c02100010878002e009000e4
:1043d00010009000f10120000108780018c0b3001f
:1043e00002402200433724005e009000ee0090005f
:1043f0009df80700e00f5000010035000044eb007d
:10440000e04f5400050032002e0090002000900084
:104410008080eb00010878000d0037002e0090002e
:10442000200490005e019000ee0190000040220008
:1044300041b724004af807000200200003f82300d7
:10444000e9f707008cf8070000007800000c7800fe
:104450007e0090006101b8002e00900020009000c6
:104460001000780001002000009ab90004027800d2
:10447000028bb90086027800050242000010b800e5
:104480000102420084007800008fbe002e009000e0
:10449000300090009e009000010878002e009000ef
:1044a00000089000c1f02100110898002e00900033
:1044b00000089000e1ed210021089800030037007a
:1044c0000000000001003700000000004f047800e9
:1044d0000080fa00000006001400fa00200798008f
:1044e0003107980042079800540798006507980024
:1044f00076079800070f9800130f98003e00900071
:1045000060009000e10f4000870032003e00900004
:1045100000089000e00f500033003a002e00900099
:10452000be009000010898003e009000ae00900090
:1045300001089800113a8000f00b20000081600013
:104540006004200071052000237420008049780059
:1045500081497800824978003e009000f000900088
:104560003e00900070009000100178003e00900026
:10457000204890000080fb00f30320000018dd00bd
:104580000080ea0000006100800878003e00900092
:10459000f00090003e009000700090001001780044
:1045a0002e009000d00190003e0090002048900026
:1045b0000080fb000018dd0000007100800878001a
:1045c000113a800000042000008170006004200087
:1045d000710520002374200080497800814978000b
:1045e00082497800050037003e0090008008900066
:1045f0002e009000808f50004d003a004e00900039
:10460000e00f50004b0032000240220043b724006c
:104610007e0090008e08900087f8070016f80700cb
:10462000800078002e009000610098007e019000cc
:104630008e0990003eb89700ceb897006af7070041
:104640000240220043b724007bf807000af8070065
:10465000800078002e009000710098002e009000dd
:1046600010007800f1c02100010878002e009000b1
:1046700010009000ce009000710190000108200011
:1046800081007100010878002e0090003000900039
:1046900011002000010878001e0890006101b80098
:1046a0002e0090007000900001002000009ab900d8
:1046b00004027800028bb9008602780005024200ed
:1046c0000010b8000102420084007800008fbe0094
:1046d0002e00900020009000ae009000610190003c
:1046e0009e00900081004100010878005e0190006a
:1046f000ee0190004e009000d0f907004e009000af
:104700009dfa07002e0090000008900061f721003c
:10471000110898002e0090000008900041f421003c
:104720002108980003003700000000000100370056
:10473000000000000080fa00000006000200fa00fd
:1047400000102000203a88007afb070050f907008b
:1047500004fe070010002000000f7800030028006e
:1047600004002400c57124000001eb00c182200078
:10477000c09d2000aafe0700a2702d0033ca2300ae
:1047800060a82000adf9070060a820007afa0700b1
:1047900003003700000000000100370000000000a7
:1047a0001e007800e00f50000b003a0060a82000c7
:1047b000b0fa0700f13f2000810f500006003e00d4
:1047c00010002000000f780001002800c0822000a7
:1047d0005efd0700f2ff37001e007800e00f50007a
:1047e000ecff320060a82000a2fa0700f13f200091
:1047f000810f5000e9ff36000000eb00000f780049
:104800008000eb00c082200050fd0700e4ff37006d
:020000040000fa
:1048100000080000b8010000800000005a0a0000f3
:104820006e00000080000000c80a000010000000b8
:1048300082000000bd37860033bd37000635bd005d
:1048400037863600bd37860037000000b809000003
:0c485000a200000080000000000000003a
:020000040000fa
:08485c000040da000000fe003c
:00000001FF
